{
  "_format": "hh-sol-artifact-1",
  "contractName": "DocumentNFT",
  "sourceName": "circuits/DocumentNFT.sol",
  "abi": [
    {
      "inputs": [],
      "stateMutability": "nonpayable",
      "type": "constructor"
    },
    {
      "anonymous": false,
      "inputs": [
        {
          "indexed": true,
          "internalType": "address",
          "name": "owner",
          "type": "address"
        },
        {
          "indexed": true,
          "internalType": "address",
          "name": "approved",
          "type": "address"
        },
        {
          "indexed": true,
          "internalType": "uint256",
          "name": "tokenId",
          "type": "uint256"
        }
      ],
      "name": "Approval",
      "type": "event"
    },
    {
      "anonymous": false,
      "inputs": [
        {
          "indexed": true,
          "internalType": "address",
          "name": "owner",
          "type": "address"
        },
        {
          "indexed": true,
          "internalType": "address",
          "name": "operator",
          "type": "address"
        },
        {
          "indexed": false,
          "internalType": "bool",
          "name": "approved",
          "type": "bool"
        }
      ],
      "name": "ApprovalForAll",
      "type": "event"
    },
    {
      "anonymous": false,
      "inputs": [
        {
          "indexed": true,
          "internalType": "address",
          "name": "from",
          "type": "address"
        },
        {
          "indexed": true,
          "internalType": "address",
          "name": "to",
          "type": "address"
        },
        {
          "indexed": true,
          "internalType": "uint256",
          "name": "tokenId",
          "type": "uint256"
        }
      ],
      "name": "Transfer",
      "type": "event"
    },
    {
      "inputs": [
        {
          "internalType": "address",
          "name": "to",
          "type": "address"
        },
        {
          "internalType": "uint256",
          "name": "tokenId",
          "type": "uint256"
        }
      ],
      "name": "approve",
      "outputs": [],
      "stateMutability": "nonpayable",
      "type": "function"
    },
    {
      "inputs": [
        {
          "internalType": "address",
          "name": "owner",
          "type": "address"
        }
      ],
      "name": "balanceOf",
      "outputs": [
        {
          "internalType": "uint256",
          "name": "",
          "type": "uint256"
        }
      ],
      "stateMutability": "view",
      "type": "function"
    },
    {
      "inputs": [
        {
          "internalType": "uint256",
          "name": "newPrice",
          "type": "uint256"
        }
      ],
      "name": "changePrice",
      "outputs": [],
      "stateMutability": "nonpayable",
      "type": "function"
    },
    {
      "inputs": [
        {
          "internalType": "uint256",
          "name": "tokenId",
          "type": "uint256"
        }
      ],
      "name": "getApproved",
      "outputs": [
        {
          "internalType": "address",
          "name": "",
          "type": "address"
        }
      ],
      "stateMutability": "view",
      "type": "function"
    },
    {
      "inputs": [
        {
          "internalType": "uint256",
          "name": "tokenId",
          "type": "uint256"
        }
      ],
      "name": "getTokenURI",
      "outputs": [
        {
          "internalType": "string",
          "name": "",
          "type": "string"
        }
      ],
      "stateMutability": "view",
      "type": "function"
    },
    {
      "inputs": [
        {
          "internalType": "address",
          "name": "subscriber",
          "type": "address"
        }
      ],
      "name": "hasSubscriptionOrDocumentsToMint",
      "outputs": [
        {
          "internalType": "bool",
          "name": "",
          "type": "bool"
        }
      ],
      "stateMutability": "view",
      "type": "function"
    },
    {
      "inputs": [
        {
          "internalType": "uint256",
          "name": "tokenId",
          "type": "uint256"
        }
      ],
      "name": "hasTokenURI",
      "outputs": [
        {
          "internalType": "bool",
          "name": "",
          "type": "bool"
        }
      ],
      "stateMutability": "view",
      "type": "function"
    },
    {
      "inputs": [
        {
          "internalType": "address",
          "name": "owner",
          "type": "address"
        },
        {
          "internalType": "address",
          "name": "operator",
          "type": "address"
        }
      ],
      "name": "isApprovedForAll",
      "outputs": [
        {
          "internalType": "bool",
          "name": "",
          "type": "bool"
        }
      ],
      "stateMutability": "view",
      "type": "function"
    },
    {
      "inputs": [
        {
          "internalType": "string",
          "name": "articleName",
          "type": "string"
        }
      ],
      "name": "mintArticle",
      "outputs": [],
      "stateMutability": "nonpayable",
      "type": "function"
    },
    {
      "inputs": [],
      "name": "name",
      "outputs": [
        {
          "internalType": "string",
          "name": "",
          "type": "string"
        }
      ],
      "stateMutability": "view",
      "type": "function"
    },
    {
      "inputs": [],
      "name": "owner",
      "outputs": [
        {
          "internalType": "address",
          "name": "",
          "type": "address"
        }
      ],
      "stateMutability": "view",
      "type": "function"
    },
    {
      "inputs": [
        {
          "internalType": "uint256",
          "name": "tokenId",
          "type": "uint256"
        }
      ],
      "name": "ownerOf",
      "outputs": [
        {
          "internalType": "address",
          "name": "",
          "type": "address"
        }
      ],
      "stateMutability": "view",
      "type": "function"
    },
    {
      "inputs": [],
      "name": "paySubscription",
      "outputs": [],
      "stateMutability": "payable",
      "type": "function"
    },
    {
      "inputs": [
        {
          "internalType": "address",
          "name": "from",
          "type": "address"
        },
        {
          "internalType": "address",
          "name": "to",
          "type": "address"
        },
        {
          "internalType": "uint256",
          "name": "tokenId",
          "type": "uint256"
        }
      ],
      "name": "safeTransferFrom",
      "outputs": [],
      "stateMutability": "nonpayable",
      "type": "function"
    },
    {
      "inputs": [
        {
          "internalType": "address",
          "name": "from",
          "type": "address"
        },
        {
          "internalType": "address",
          "name": "to",
          "type": "address"
        },
        {
          "internalType": "uint256",
          "name": "tokenId",
          "type": "uint256"
        },
        {
          "internalType": "bytes",
          "name": "data",
          "type": "bytes"
        }
      ],
      "name": "safeTransferFrom",
      "outputs": [],
      "stateMutability": "nonpayable",
      "type": "function"
    },
    {
      "inputs": [
        {
          "internalType": "address",
          "name": "operator",
          "type": "address"
        },
        {
          "internalType": "bool",
          "name": "approved",
          "type": "bool"
        }
      ],
      "name": "setApprovalForAll",
      "outputs": [],
      "stateMutability": "nonpayable",
      "type": "function"
    },
    {
      "inputs": [
        {
          "internalType": "string",
          "name": "str",
          "type": "string"
        },
        {
          "internalType": "uint256",
          "name": "startIndex",
          "type": "uint256"
        },
        {
          "internalType": "uint256",
          "name": "endIndex",
          "type": "uint256"
        }
      ],
      "name": "sliceString",
      "outputs": [
        {
          "internalType": "string",
          "name": "",
          "type": "string"
        }
      ],
      "stateMutability": "pure",
      "type": "function"
    },
    {
      "inputs": [
        {
          "internalType": "bytes4",
          "name": "interfaceId",
          "type": "bytes4"
        }
      ],
      "name": "supportsInterface",
      "outputs": [
        {
          "internalType": "bool",
          "name": "",
          "type": "bool"
        }
      ],
      "stateMutability": "view",
      "type": "function"
    },
    {
      "inputs": [],
      "name": "symbol",
      "outputs": [
        {
          "internalType": "string",
          "name": "",
          "type": "string"
        }
      ],
      "stateMutability": "view",
      "type": "function"
    },
    {
      "inputs": [
        {
          "internalType": "uint256",
          "name": "index",
          "type": "uint256"
        }
      ],
      "name": "tokenByIndex",
      "outputs": [
        {
          "internalType": "uint256",
          "name": "",
          "type": "uint256"
        }
      ],
      "stateMutability": "view",
      "type": "function"
    },
    {
      "inputs": [
        {
          "internalType": "address",
          "name": "owner",
          "type": "address"
        },
        {
          "internalType": "uint256",
          "name": "index",
          "type": "uint256"
        }
      ],
      "name": "tokenOfOwnerByIndex",
      "outputs": [
        {
          "internalType": "uint256",
          "name": "",
          "type": "uint256"
        }
      ],
      "stateMutability": "view",
      "type": "function"
    },
    {
      "inputs": [
        {
          "internalType": "uint256",
          "name": "tokenId",
          "type": "uint256"
        }
      ],
      "name": "tokenURI",
      "outputs": [
        {
          "internalType": "string",
          "name": "",
          "type": "string"
        }
      ],
      "stateMutability": "view",
      "type": "function"
    },
    {
      "inputs": [],
      "name": "totalSupply",
      "outputs": [
        {
          "internalType": "uint256",
          "name": "",
          "type": "uint256"
        }
      ],
      "stateMutability": "view",
      "type": "function"
    },
    {
      "inputs": [
        {
          "internalType": "address",
          "name": "from",
          "type": "address"
        },
        {
          "internalType": "address",
          "name": "to",
          "type": "address"
        },
        {
          "internalType": "uint256",
          "name": "tokenId",
          "type": "uint256"
        }
      ],
      "name": "transferFrom",
      "outputs": [],
      "stateMutability": "nonpayable",
      "type": "function"
    },
    {
      "inputs": [
        {
          "internalType": "address",
          "name": "from",
          "type": "address"
        },
        {
          "internalType": "address",
          "name": "to",
          "type": "address"
        },
        {
          "internalType": "uint256",
          "name": "tokenId",
          "type": "uint256"
        }
      ],
      "name": "transferNFT",
      "outputs": [],
      "stateMutability": "nonpayable",
      "type": "function"
    },
    {
      "inputs": [],
      "name": "withdraw",
      "outputs": [],
      "stateMutability": "nonpayable",
      "type": "function"
    }
  ],
  "bytecode": "0x60806040523480156200001157600080fd5b50604080518082018252600b81526a111bd8dd5b595b9d13919560aa1b6020808301918252835180850190945260048452631113919560e21b9084015281519192916200006191600091620000a6565b50805162000077906001906020840190620000a6565b50506001600a5550600c80546001600160a01b031916331790556509184e72a000600d55606460105562000189565b828054620000b4906200014c565b90600052602060002090601f016020900481019282620000d8576000855562000123565b82601f10620000f357805160ff191683800117855562000123565b8280016001018555821562000123579182015b828111156200012357825182559160200191906001019062000106565b506200013192915062000135565b5090565b5b8082111562000131576000815560010162000136565b600181811c908216806200016157607f821691505b602082108114156200018357634e487b7160e01b600052602260045260246000fd5b50919050565b61226380620001996000396000f3fe6080604052600436106101805760003560e01c806369e9cae1116100d1578063a22cb4651161008a578063b3ccf8dc11610064578063b3ccf8dc14610447578063b88d4fde1461047f578063c87b56dd1461049f578063e985e9c5146104bf57600080fd5b8063a22cb465146103e7578063a2b40d1914610407578063b13081ff1461042757600080fd5b806369e9cae11461034a57806370a082311461036a5780637e5cf5191461038a5780638da5cb5b146103aa57806395d89b41146103ca57806397e18d6e146103df57600080fd5b806323b872dd1161013e5780633ccfd60b116101185780633ccfd60b146102d557806342842e0e146102ea5780634f6ccce71461030a5780636352211e1461032a57600080fd5b806323b872dd146102755780632f745c59146102955780633bb3a24d146102b557600080fd5b8062f310c61461018557806301ffc9a7146101a757806306fdde03146101dc578063081812fc146101fe578063095ea7b31461023657806318160ddd14610256575b600080fd5b34801561019157600080fd5b506101a56101a0366004611c71565b610508565b005b3480156101b357600080fd5b506101c76101c2366004611cbc565b610622565b60405190151581526020015b60405180910390f35b3480156101e857600080fd5b506101f161064d565b6040516101d39190611d31565b34801561020a57600080fd5b5061021e610219366004611d44565b6106df565b6040516001600160a01b0390911681526020016101d3565b34801561024257600080fd5b506101a5610251366004611d79565b610706565b34801561026257600080fd5b506008545b6040519081526020016101d3565b34801561028157600080fd5b506101a5610290366004611da3565b61081c565b3480156102a157600080fd5b506102676102b0366004611d79565b61084d565b3480156102c157600080fd5b506101f16102d0366004611d44565b6108e3565b3480156102e157600080fd5b506101a56109f0565b3480156102f657600080fd5b506101a5610305366004611da3565b610a78565b34801561031657600080fd5b50610267610325366004611d44565b610a93565b34801561033657600080fd5b5061021e610345366004611d44565b610b26565b34801561035657600080fd5b506101a5610365366004611da3565b610b86565b34801561037657600080fd5b50610267610385366004611ddf565b610c00565b34801561039657600080fd5b506101f16103a5366004611dfa565b610c86565b3480156103b657600080fd5b50600c5461021e906001600160a01b031681565b3480156103d657600080fd5b506101f1610dd3565b6101a5610de2565b3480156103f357600080fd5b506101a5610402366004611e48565b610e8f565b34801561041357600080fd5b506101a5610422366004611d44565b610e9a565b34801561043357600080fd5b506101c7610442366004611d44565b610ee9565b34801561045357600080fd5b506101c7610462366004611ddf565b6001600160a01b03166000908152600f6020526040902054151590565b34801561048b57600080fd5b506101a561049a366004611e84565b610f0f565b3480156104ab57600080fd5b506101f16104ba366004611d44565b610f47565b3480156104cb57600080fd5b506101c76104da366004611f00565b6001600160a01b03918216600090815260056020908152604080832093909416825291909152205460ff1690565b610510610fbb565b336000908152600f60205260409020546105905760405162461bcd60e51b815260206004820152603660248201527f596f75206e65656420746f2070757263686173652061207375627363726970746044820152751a5bdb881d1bc81b5a5b9d081848191bd8dd5b595b9d60521b60648201526084015b60405180910390fd5b61059e600b80546001019055565b60006105a9600b5490565b90506105b53382611015565b60006105c48360006040610c86565b90506105cf816111ae565b6000838152600e6020908152604090912082516105f29391929190910190611b2c565b50336000908152600f6020526040812080549161060e83611f49565b9190505550505061061f6001600a55565b50565b60006001600160e01b0319821663780e9d6360e01b14806106475750610647826111d7565b92915050565b60606000805461065c90611f60565b80601f016020809104026020016040519081016040528092919081815260200182805461068890611f60565b80156106d55780601f106106aa576101008083540402835291602001916106d5565b820191906000526020600020905b8154815290600101906020018083116106b857829003601f168201915b5050505050905090565b60006106ea82611227565b506000908152600460205260409020546001600160a01b031690565b600061071182610b26565b9050806001600160a01b0316836001600160a01b0316141561077f5760405162461bcd60e51b815260206004820152602160248201527f4552433732313a20617070726f76616c20746f2063757272656e74206f776e656044820152603960f91b6064820152608401610587565b336001600160a01b038216148061079b575061079b81336104da565b61080d5760405162461bcd60e51b815260206004820152603d60248201527f4552433732313a20617070726f76652063616c6c6572206973206e6f7420746f60448201527f6b656e206f776e6572206f7220617070726f76656420666f7220616c6c0000006064820152608401610587565b6108178383611286565b505050565b61082633826112f4565b6108425760405162461bcd60e51b815260040161058790611f9b565b610817838383611373565b600061085883610c00565b82106108ba5760405162461bcd60e51b815260206004820152602b60248201527f455243373231456e756d657261626c653a206f776e657220696e646578206f7560448201526a74206f6620626f756e647360a81b6064820152608401610587565b506001600160a01b03919091166000908152600660209081526040808320938352929052205490565b60606108ee82610ee9565b6109525760405162461bcd60e51b815260206004820152602f60248201527f4552433732314d657461646174613a2055524920717565727920666f72206e6f60448201526e3732bc34b9ba32b73a103a37b5b2b760891b6064820152608401610587565b6000828152600e60205260409020805461096b90611f60565b80601f016020809104026020016040519081016040528092919081815260200182805461099790611f60565b80156109e45780601f106109b9576101008083540402835291602001916109e4565b820191906000526020600020905b8154815290600101906020018083116109c757829003601f168201915b50505050509050919050565b600c546001600160a01b03163314610a3a5760405162461bcd60e51b815260206004820152600d60248201526c2737ba103a34329037bbb732b960991b6044820152606401610587565b600c5460405147916001600160a01b03169082156108fc029083906000818181858888f19350505050158015610a74573d6000803e3d6000fd5b5050565b61081783838360405180602001604052806000815250610f0f565b6000610a9e60085490565b8210610b015760405162461bcd60e51b815260206004820152602c60248201527f455243373231456e756d657261626c653a20676c6f62616c20696e646578206f60448201526b7574206f6620626f756e647360a01b6064820152608401610587565b60088281548110610b1457610b14611fe8565b90600052602060002001549050919050565b6000818152600260205260408120546001600160a01b0316806106475760405162461bcd60e51b8152602060048201526018602482015277115490cdcc8c4e881a5b9d985b1a59081d1bdad95b88125160421b6044820152606401610587565b6000818152600260205260409020546001600160a01b031661081c5760405162461bcd60e51b815260206004820152602d60248201527f4552433732313a207472616e73666572206f6620746f6b656e2074686174206460448201526c1bd95cc81b9bdd08195e1a5cdd609a1b6064820152608401610587565b60006001600160a01b038216610c6a5760405162461bcd60e51b815260206004820152602960248201527f4552433732313a2061646472657373207a65726f206973206e6f7420612076616044820152683634b21037bbb732b960b91b6064820152608401610587565b506001600160a01b031660009081526003602052604090205490565b6060828211610ceb5760405162461bcd60e51b815260206004820152602b60248201527f456e6420696e646578206d7573742062652067726561746572207468616e207360448201526a3a30b93a1034b73232bc1760a91b6064820152608401610587565b83518490831115610cfb57805192505b6040831115610d0957604092505b6000610d158585611ffe565b67ffffffffffffffff811115610d2d57610d2d611bc5565b6040519080825280601f01601f191660200182016040528015610d57576020820181803683370190505b509050845b84811015610dc957828181518110610d7657610d76611fe8565b01602001516001600160f81b03191682610d908884611ffe565b81518110610da057610da0611fe8565b60200101906001600160f81b031916908160001a90535080610dc181612015565b915050610d5c565b5095945050505050565b60606001805461065c90611f60565b601054600d54610df29190612030565b3414610e665760405162461bcd60e51b815260206004820152603c60248201527f506c65617365207375626d69742074686520636f727265637420616d6f756e7460448201527f206f662045544820746f20707572636861736520746865204e46542e000000006064820152608401610587565b601054336000908152600f602052604081208054909190610e8890849061204f565b9091555050565b610a743383836114e4565b600c546001600160a01b03163314610ee45760405162461bcd60e51b815260206004820152600d60248201526c2737ba103a34329037bbb732b960991b6044820152606401610587565b600d55565b6000818152600e602052604081208054829190610f0590611f60565b9050119050919050565b610f1933836112f4565b610f355760405162461bcd60e51b815260040161058790611f9b565b610f41848484846115b3565b50505050565b6060610f5282611227565b6000610f6960408051602081019091526000815290565b90506000815111610f895760405180602001604052806000815250610fb4565b80610f93846115e6565b604051602001610fa4929190612067565b6040516020818303038152906040525b9392505050565b6002600a54141561100e5760405162461bcd60e51b815260206004820152601f60248201527f5265656e7472616e637947756172643a207265656e7472616e742063616c6c006044820152606401610587565b6002600a55565b6001600160a01b03821661106b5760405162461bcd60e51b815260206004820181905260248201527f4552433732313a206d696e7420746f20746865207a65726f20616464726573736044820152606401610587565b6000818152600260205260409020546001600160a01b0316156110d05760405162461bcd60e51b815260206004820152601c60248201527f4552433732313a20746f6b656e20616c7265616479206d696e746564000000006044820152606401610587565b6110de600083836001611683565b6000818152600260205260409020546001600160a01b0316156111435760405162461bcd60e51b815260206004820152601c60248201527f4552433732313a20746f6b656e20616c7265616479206d696e746564000000006044820152606401610587565b6001600160a01b038216600081815260036020908152604080832080546001019055848352600290915280822080546001600160a01b0319168417905551839291907fddf252ad1be2c89b69c2b068fc378daa952ba7f163c4a11628f55a4df523b3ef908290a45050565b6060816040516020016111c19190612096565b6040516020818303038152906040529050919050565b60006001600160e01b031982166380ac58cd60e01b148061120857506001600160e01b03198216635b5e139f60e01b145b8061064757506301ffc9a760e01b6001600160e01b0319831614610647565b6000818152600260205260409020546001600160a01b031661061f5760405162461bcd60e51b8152602060048201526018602482015277115490cdcc8c4e881a5b9d985b1a59081d1bdad95b88125160421b6044820152606401610587565b600081815260046020526040902080546001600160a01b0319166001600160a01b03841690811790915581906112bb82610b26565b6001600160a01b03167f8c5be1e5ebec7d5bd14f71427d1e84f3dd0314c0f7b2291e5b200ac8c7c3b92560405160405180910390a45050565b60008061130083610b26565b9050806001600160a01b0316846001600160a01b0316148061134757506001600160a01b0380821660009081526005602090815260408083209388168352929052205460ff165b8061136b5750836001600160a01b0316611360846106df565b6001600160a01b0316145b949350505050565b826001600160a01b031661138682610b26565b6001600160a01b0316146113ac5760405162461bcd60e51b815260040161058790612126565b6001600160a01b03821661140e5760405162461bcd60e51b8152602060048201526024808201527f4552433732313a207472616e7366657220746f20746865207a65726f206164646044820152637265737360e01b6064820152608401610587565b61141b8383836001611683565b826001600160a01b031661142e82610b26565b6001600160a01b0316146114545760405162461bcd60e51b815260040161058790612126565b600081815260046020908152604080832080546001600160a01b03199081169091556001600160a01b0387811680865260038552838620805460001901905590871680865283862080546001019055868652600290945282852080549092168417909155905184937fddf252ad1be2c89b69c2b068fc378daa952ba7f163c4a11628f55a4df523b3ef91a4505050565b816001600160a01b0316836001600160a01b031614156115465760405162461bcd60e51b815260206004820152601960248201527f4552433732313a20617070726f766520746f2063616c6c6572000000000000006044820152606401610587565b6001600160a01b03838116600081815260056020908152604080832094871680845294825291829020805460ff191686151590811790915591519182527f17307eab39ab6107e8899845ad3d59bd9653f200f220920489ca2b5937696c31910160405180910390a3505050565b6115be848484611373565b6115ca848484846117b7565b610f415760405162461bcd60e51b81526004016105879061216b565b606060006115f3836118c4565b600101905060008167ffffffffffffffff81111561161357611613611bc5565b6040519080825280601f01601f19166020018201604052801561163d576020820181803683370190505b5090508181016020015b600019016f181899199a1a9b1b9c1cb0b131b232b360811b600a86061a8153600a85049450846116765761167b565b611647565b509392505050565b60018111156116f25760405162461bcd60e51b815260206004820152603560248201527f455243373231456e756d657261626c653a20636f6e7365637574697665207472604482015274185b9cd9995c9cc81b9bdd081cdd5c1c1bdc9d1959605a1b6064820152608401610587565b816001600160a01b03851661174e5761174981600880546000838152600960205260408120829055600182018355919091527ff3f7a9fe364faab93b216da50a3214154f22a0a2b415b23a84c8169e8b636ee30155565b611771565b836001600160a01b0316856001600160a01b03161461177157611771858261199c565b6001600160a01b03841661178d5761178881611a39565b6117b0565b846001600160a01b0316846001600160a01b0316146117b0576117b08482611ae8565b5050505050565b60006001600160a01b0384163b156118b957604051630a85bd0160e11b81526001600160a01b0385169063150b7a02906117fb9033908990889088906004016121bd565b602060405180830381600087803b15801561181557600080fd5b505af1925050508015611845575060408051601f3d908101601f19168201909252611842918101906121fa565b60015b61189f573d808015611873576040519150601f19603f3d011682016040523d82523d6000602084013e611878565b606091505b5080516118975760405162461bcd60e51b81526004016105879061216b565b805181602001fd5b6001600160e01b031916630a85bd0160e11b14905061136b565b506001949350505050565b60008072184f03e93ff9f4daa797ed6e38ed64bf6a1f0160401b83106119035772184f03e93ff9f4daa797ed6e38ed64bf6a1f0160401b830492506040015b6d04ee2d6d415b85acef8100000000831061192f576d04ee2d6d415b85acef8100000000830492506020015b662386f26fc10000831061194d57662386f26fc10000830492506010015b6305f5e1008310611965576305f5e100830492506008015b612710831061197957612710830492506004015b6064831061198b576064830492506002015b600a83106106475760010192915050565b600060016119a984610c00565b6119b39190611ffe565b600083815260076020526040902054909150808214611a06576001600160a01b03841660009081526006602090815260408083208584528252808320548484528184208190558352600790915290208190555b5060009182526007602090815260408084208490556001600160a01b039094168352600681528383209183525290812055565b600854600090611a4b90600190611ffe565b60008381526009602052604081205460088054939450909284908110611a7357611a73611fe8565b906000526020600020015490508060088381548110611a9457611a94611fe8565b6000918252602080832090910192909255828152600990915260408082208490558582528120556008805480611acc57611acc612217565b6001900381819060005260206000200160009055905550505050565b6000611af383610c00565b6001600160a01b039093166000908152600660209081526040808320868452825280832085905593825260079052919091209190915550565b828054611b3890611f60565b90600052602060002090601f016020900481019282611b5a5760008555611ba0565b82601f10611b7357805160ff1916838001178555611ba0565b82800160010185558215611ba0579182015b82811115611ba0578251825591602001919060010190611b85565b50611bac929150611bb0565b5090565b5b80821115611bac5760008155600101611bb1565b634e487b7160e01b600052604160045260246000fd5b600067ffffffffffffffff80841115611bf657611bf6611bc5565b604051601f8501601f19908116603f01168101908282118183101715611c1e57611c1e611bc5565b81604052809350858152868686011115611c3757600080fd5b858560208301376000602087830101525050509392505050565b600082601f830112611c6257600080fd5b610fb483833560208501611bdb565b600060208284031215611c8357600080fd5b813567ffffffffffffffff811115611c9a57600080fd5b61136b84828501611c51565b6001600160e01b03198116811461061f57600080fd5b600060208284031215611cce57600080fd5b8135610fb481611ca6565b60005b83811015611cf4578181015183820152602001611cdc565b83811115610f415750506000910152565b60008151808452611d1d816020860160208601611cd9565b601f01601f19169290920160200192915050565b602081526000610fb46020830184611d05565b600060208284031215611d5657600080fd5b5035919050565b80356001600160a01b0381168114611d7457600080fd5b919050565b60008060408385031215611d8c57600080fd5b611d9583611d5d565b946020939093013593505050565b600080600060608486031215611db857600080fd5b611dc184611d5d565b9250611dcf60208501611d5d565b9150604084013590509250925092565b600060208284031215611df157600080fd5b610fb482611d5d565b600080600060608486031215611e0f57600080fd5b833567ffffffffffffffff811115611e2657600080fd5b611e3286828701611c51565b9660208601359650604090950135949350505050565b60008060408385031215611e5b57600080fd5b611e6483611d5d565b915060208301358015158114611e7957600080fd5b809150509250929050565b60008060008060808587031215611e9a57600080fd5b611ea385611d5d565b9350611eb160208601611d5d565b925060408501359150606085013567ffffffffffffffff811115611ed457600080fd5b8501601f81018713611ee557600080fd5b611ef487823560208401611bdb565b91505092959194509250565b60008060408385031215611f1357600080fd5b611f1c83611d5d565b9150611f2a60208401611d5d565b90509250929050565b634e487b7160e01b600052601160045260246000fd5b600081611f5857611f58611f33565b506000190190565b600181811c90821680611f7457607f821691505b60208210811415611f9557634e487b7160e01b600052602260045260246000fd5b50919050565b6020808252602d908201527f4552433732313a2063616c6c6572206973206e6f7420746f6b656e206f776e6560408201526c1c881bdc88185c1c1c9bdd9959609a1b606082015260800190565b634e487b7160e01b600052603260045260246000fd5b60008282101561201057612010611f33565b500390565b600060001982141561202957612029611f33565b5060010190565b600081600019048311821515161561204a5761204a611f33565b500290565b6000821982111561206257612062611f33565b500190565b60008351612079818460208801611cd9565b83519083019061208d818360208801611cd9565b01949350505050565b7f646174613a6170706c69636174696f6e2f6a736f6e3b757466382c7b226e616d81526332911d1160e11b6020820152600082516120db816024850160208701611cd9565b7f222c20226465736372697074696f6e223a22412070726976617465207a6b506160249390910192830152506d70657220646f63756d656e74227d60901b6044820152605201919050565b60208082526025908201527f4552433732313a207472616e736665722066726f6d20696e636f72726563742060408201526437bbb732b960d91b606082015260800190565b60208082526032908201527f4552433732313a207472616e7366657220746f206e6f6e20455243373231526560408201527131b2b4bb32b91034b6b83632b6b2b73a32b960711b606082015260800190565b6001600160a01b03858116825284166020820152604081018390526080606082018190526000906121f090830184611d05565b9695505050505050565b60006020828403121561220c57600080fd5b8151610fb481611ca6565b634e487b7160e01b600052603160045260246000fdfea2646970667358221220945394a0d077896e02ab7bbb5d2f5b830ddd942ef232ecaa944a4782003026f564736f6c63430008090033",
  "linkReferences": {},
  "deployedLinkReferences": {}
}